{
  "_format": "hh-sol-artifact-1",
  "contractName": "BarDex",
  "sourceName": "contracts/BarDex.sol",
  "abi": [
    {
      "inputs": [
        {
          "internalType": "address",
          "name": "_BardToken",
          "type": "address"
        }
      ],
      "stateMutability": "nonpayable",
      "type": "constructor"
    },
    {
      "inputs": [
        {
          "internalType": "address",
          "name": "account",
          "type": "address"
        }
      ],
      "name": "AddressInsufficientBalance",
      "type": "error"
    },
    {
      "inputs": [],
      "name": "FailedInnerCall",
      "type": "error"
    },
    {
      "inputs": [
        {
          "internalType": "address",
          "name": "owner",
          "type": "address"
        }
      ],
      "name": "OwnableInvalidOwner",
      "type": "error"
    },
    {
      "inputs": [
        {
          "internalType": "address",
          "name": "account",
          "type": "address"
        }
      ],
      "name": "OwnableUnauthorizedAccount",
      "type": "error"
    },
    {
      "inputs": [],
      "name": "ReentrancyGuardReentrantCall",
      "type": "error"
    },
    {
      "anonymous": false,
      "inputs": [
        {
          "indexed": true,
          "internalType": "address",
          "name": "previousOwner",
          "type": "address"
        },
        {
          "indexed": true,
          "internalType": "address",
          "name": "newOwner",
          "type": "address"
        }
      ],
      "name": "OwnershipTransferred",
      "type": "event"
    },
    {
      "inputs": [],
      "name": "BardToken",
      "outputs": [
        {
          "internalType": "contract IERC20",
          "name": "",
          "type": "address"
        }
      ],
      "stateMutability": "view",
      "type": "function"
    },
    {
      "inputs": [],
      "name": "owner",
      "outputs": [
        {
          "internalType": "address",
          "name": "",
          "type": "address"
        }
      ],
      "stateMutability": "view",
      "type": "function"
    },
    {
      "inputs": [],
      "name": "renounceOwnership",
      "outputs": [],
      "stateMutability": "nonpayable",
      "type": "function"
    },
    {
      "inputs": [],
      "name": "swap",
      "outputs": [],
      "stateMutability": "payable",
      "type": "function"
    },
    {
      "inputs": [
        {
          "internalType": "address",
          "name": "newOwner",
          "type": "address"
        }
      ],
      "name": "transferOwnership",
      "outputs": [],
      "stateMutability": "nonpayable",
      "type": "function"
    },
    {
      "inputs": [
        {
          "internalType": "uint256",
          "name": "amount",
          "type": "uint256"
        }
      ],
      "name": "widthdraw",
      "outputs": [],
      "stateMutability": "nonpayable",
      "type": "function"
    }
  ],
  "bytecode": "0x608060405234801561001057600080fd5b50604051610a4b380380610a4b8339818101604052810190610032919061022a565b33600073ffffffffffffffffffffffffffffffffffffffff168173ffffffffffffffffffffffffffffffffffffffff16036100a55760006040517f1e4fbdf700000000000000000000000000000000000000000000000000000000815260040161009c9190610266565b60405180910390fd5b6100b48161010360201b60201c565b506001808190555080600260006101000a81548173ffffffffffffffffffffffffffffffffffffffff021916908373ffffffffffffffffffffffffffffffffffffffff16021790555050610281565b60008060009054906101000a900473ffffffffffffffffffffffffffffffffffffffff169050816000806101000a81548173ffffffffffffffffffffffffffffffffffffffff021916908373ffffffffffffffffffffffffffffffffffffffff1602179055508173ffffffffffffffffffffffffffffffffffffffff168173ffffffffffffffffffffffffffffffffffffffff167f8be0079c531659141344cd1fd0a4f28419497f9722a3daafe3b4186f6b6457e060405160405180910390a35050565b600080fd5b600073ffffffffffffffffffffffffffffffffffffffff82169050919050565b60006101f7826101cc565b9050919050565b610207816101ec565b811461021257600080fd5b50565b600081519050610224816101fe565b92915050565b6000602082840312156102405761023f6101c7565b5b600061024e84828501610215565b91505092915050565b610260816101ec565b82525050565b600060208201905061027b6000830184610257565b92915050565b6107bb806102906000396000f3fe6080604052600436106100555760003560e01c8063249f67711461005a578063715018a6146100855780638119c0651461009c5780638da5cb5b146100a6578063e0da260c146100d1578063f2fde38b146100fa575b600080fd5b34801561006657600080fd5b5061006f610123565b60405161007c91906105ef565b60405180910390f35b34801561009157600080fd5b5061009a610149565b005b6100a461015d565b005b3480156100b257600080fd5b506100bb6101ee565b6040516100c8919061062b565b60405180910390f35b3480156100dd57600080fd5b506100f860048036038101906100f39190610681565b610217565b005b34801561010657600080fd5b50610121600480360381019061011c91906106da565b61025b565b005b600260009054906101000a900473ffffffffffffffffffffffffffffffffffffffff1681565b6101516102e1565b61015b6000610368565b565b600260009054906101000a900473ffffffffffffffffffffffffffffffffffffffff1673ffffffffffffffffffffffffffffffffffffffff166340c10f1933346040518363ffffffff1660e01b81526004016101ba929190610716565b600060405180830381600087803b1580156101d457600080fd5b505af11580156101e8573d6000803e3d6000fd5b50505050565b60008060009054906101000a900473ffffffffffffffffffffffffffffffffffffffff16905090565b61021f6102e1565b61022761042c565b610250813373ffffffffffffffffffffffffffffffffffffffff1661047290919063ffffffff16565b61025861055f565b50565b6102636102e1565b600073ffffffffffffffffffffffffffffffffffffffff168173ffffffffffffffffffffffffffffffffffffffff16036102d55760006040517f1e4fbdf70000000000000000000000000000000000000000000000000000000081526004016102cc919061062b565b60405180910390fd5b6102de81610368565b50565b6102e9610568565b73ffffffffffffffffffffffffffffffffffffffff166103076101ee565b73ffffffffffffffffffffffffffffffffffffffff16146103665761032a610568565b6040517f118cdaa700000000000000000000000000000000000000000000000000000000815260040161035d919061062b565b60405180910390fd5b565b60008060009054906101000a900473ffffffffffffffffffffffffffffffffffffffff169050816000806101000a81548173ffffffffffffffffffffffffffffffffffffffff021916908373ffffffffffffffffffffffffffffffffffffffff1602179055508173ffffffffffffffffffffffffffffffffffffffff168173ffffffffffffffffffffffffffffffffffffffff167f8be0079c531659141344cd1fd0a4f28419497f9722a3daafe3b4186f6b6457e060405160405180910390a35050565b600260015403610468576040517f3ee5aeb500000000000000000000000000000000000000000000000000000000815260040160405180910390fd5b6002600181905550565b804710156104b757306040517fcd7860590000000000000000000000000000000000000000000000000000000081526004016104ae919061062b565b60405180910390fd5b60008273ffffffffffffffffffffffffffffffffffffffff16826040516104dd90610770565b60006040518083038185875af1925050503d806000811461051a576040519150601f19603f3d011682016040523d82523d6000602084013e61051f565b606091505b505090508061055a576040517f1425ea4200000000000000000000000000000000000000000000000000000000815260040160405180910390fd5b505050565b60018081905550565b600033905090565b600073ffffffffffffffffffffffffffffffffffffffff82169050919050565b6000819050919050565b60006105b56105b06105ab84610570565b610590565b610570565b9050919050565b60006105c78261059a565b9050919050565b60006105d9826105bc565b9050919050565b6105e9816105ce565b82525050565b600060208201905061060460008301846105e0565b92915050565b600061061582610570565b9050919050565b6106258161060a565b82525050565b6000602082019050610640600083018461061c565b92915050565b600080fd5b6000819050919050565b61065e8161064b565b811461066957600080fd5b50565b60008135905061067b81610655565b92915050565b60006020828403121561069757610696610646565b5b60006106a58482850161066c565b91505092915050565b6106b78161060a565b81146106c257600080fd5b50565b6000813590506106d4816106ae565b92915050565b6000602082840312156106f0576106ef610646565b5b60006106fe848285016106c5565b91505092915050565b6107108161064b565b82525050565b600060408201905061072b600083018561061c565b6107386020830184610707565b9392505050565b600081905092915050565b50565b600061075a60008361073f565b91506107658261074a565b600082019050919050565b600061077b8261074d565b915081905091905056fea264697066735822122064a25b1289d506655e6c1ea45a2c5af311ca81dd464bd8bf3bb1020f7e25898764736f6c63430008140033",
  "linkReferences": {},
  "deployedLinkReferences": {}
}