{
  "_format": "hh-sol-artifact-1",
  "contractName": "DaoCreator",
  "sourceName": "contracts/DaoCreator.sol",
  "abi": [
    {
      "inputs": [],
      "stateMutability": "nonpayable",
      "type": "constructor"
    },
    {
      "inputs": [
        {
          "internalType": "address",
          "name": "",
          "type": "address"
        },
        {
          "internalType": "uint256",
          "name": "",
          "type": "uint256"
        }
      ],
      "name": "_userSubDaos",
      "outputs": [
        {
          "internalType": "uint256",
          "name": "",
          "type": "uint256"
        }
      ],
      "stateMutability": "view",
      "type": "function"
    }
  ],
  "bytecode": "0x608060405234801561001057600080fd5b506101ca806100206000396000f3fe608060405234801561001057600080fd5b506004361061002b5760003560e01c80634473fa7e14610030575b600080fd5b61004a6004803603810190610045919061012a565b610060565b6040516100579190610179565b60405180910390f35b6001602052816000526040600020818154811061007c57600080fd5b90600052602060002001600091509150505481565b600080fd5b600073ffffffffffffffffffffffffffffffffffffffff82169050919050565b60006100c182610096565b9050919050565b6100d1816100b6565b81146100dc57600080fd5b50565b6000813590506100ee816100c8565b92915050565b6000819050919050565b610107816100f4565b811461011257600080fd5b50565b600081359050610124816100fe565b92915050565b6000806040838503121561014157610140610091565b5b600061014f858286016100df565b925050602061016085828601610115565b9150509250929050565b610173816100f4565b82525050565b600060208201905061018e600083018461016a565b9291505056fea2646970667358221220e684ab2a748fbc8354e3b4b5b5ee96f4b722840a75b251fa9613c254a75cbf6a64736f6c63430008140033",
  "linkReferences": {},
  "deployedLinkReferences": {}
}