{
  "_format": "hh-sol-artifact-1",
  "contractName": "MyToken",
  "sourceName": "contracts/SubDaoToken.sol",
  "abi": [
    {
      "inputs": [
        {
          "internalType": "address",
          "name": "defaultAdmin",
          "type": "address"
        },
        {
          "internalType": "address",
          "name": "minter",
          "type": "address"
        }
      ],
      "stateMutability": "nonpayable",
      "type": "constructor"
    },
    {
      "inputs": [],
      "name": "AccessControlBadConfirmation",
      "type": "error"
    },
    {
      "inputs": [
        {
          "internalType": "address",
          "name": "account",
          "type": "address"
        },
        {
          "internalType": "bytes32",
          "name": "neededRole",
          "type": "bytes32"
        }
      ],
      "name": "AccessControlUnauthorizedAccount",
      "type": "error"
    },
    {
      "inputs": [
        {
          "internalType": "address",
          "name": "sender",
          "type": "address"
        },
        {
          "internalType": "uint256",
          "name": "balance",
          "type": "uint256"
        },
        {
          "internalType": "uint256",
          "name": "needed",
          "type": "uint256"
        },
        {
          "internalType": "uint256",
          "name": "tokenId",
          "type": "uint256"
        }
      ],
      "name": "ERC1155InsufficientBalance",
      "type": "error"
    },
    {
      "inputs": [
        {
          "internalType": "address",
          "name": "approver",
          "type": "address"
        }
      ],
      "name": "ERC1155InvalidApprover",
      "type": "error"
    },
    {
      "inputs": [
        {
          "internalType": "uint256",
          "name": "idsLength",
          "type": "uint256"
        },
        {
          "internalType": "uint256",
          "name": "valuesLength",
          "type": "uint256"
        }
      ],
      "name": "ERC1155InvalidArrayLength",
      "type": "error"
    },
    {
      "inputs": [
        {
          "internalType": "address",
          "name": "operator",
          "type": "address"
        }
      ],
      "name": "ERC1155InvalidOperator",
      "type": "error"
    },
    {
      "inputs": [
        {
          "internalType": "address",
          "name": "receiver",
          "type": "address"
        }
      ],
      "name": "ERC1155InvalidReceiver",
      "type": "error"
    },
    {
      "inputs": [
        {
          "internalType": "address",
          "name": "sender",
          "type": "address"
        }
      ],
      "name": "ERC1155InvalidSender",
      "type": "error"
    },
    {
      "inputs": [
        {
          "internalType": "address",
          "name": "operator",
          "type": "address"
        },
        {
          "internalType": "address",
          "name": "owner",
          "type": "address"
        }
      ],
      "name": "ERC1155MissingApprovalForAll",
      "type": "error"
    },
    {
      "anonymous": false,
      "inputs": [
        {
          "indexed": true,
          "internalType": "address",
          "name": "account",
          "type": "address"
        },
        {
          "indexed": true,
          "internalType": "address",
          "name": "operator",
          "type": "address"
        },
        {
          "indexed": false,
          "internalType": "bool",
          "name": "approved",
          "type": "bool"
        }
      ],
      "name": "ApprovalForAll",
      "type": "event"
    },
    {
      "anonymous": false,
      "inputs": [
        {
          "indexed": true,
          "internalType": "bytes32",
          "name": "role",
          "type": "bytes32"
        },
        {
          "indexed": true,
          "internalType": "bytes32",
          "name": "previousAdminRole",
          "type": "bytes32"
        },
        {
          "indexed": true,
          "internalType": "bytes32",
          "name": "newAdminRole",
          "type": "bytes32"
        }
      ],
      "name": "RoleAdminChanged",
      "type": "event"
    },
    {
      "anonymous": false,
      "inputs": [
        {
          "indexed": true,
          "internalType": "bytes32",
          "name": "role",
          "type": "bytes32"
        },
        {
          "indexed": true,
          "internalType": "address",
          "name": "account",
          "type": "address"
        },
        {
          "indexed": true,
          "internalType": "address",
          "name": "sender",
          "type": "address"
        }
      ],
      "name": "RoleGranted",
      "type": "event"
    },
    {
      "anonymous": false,
      "inputs": [
        {
          "indexed": true,
          "internalType": "bytes32",
          "name": "role",
          "type": "bytes32"
        },
        {
          "indexed": true,
          "internalType": "address",
          "name": "account",
          "type": "address"
        },
        {
          "indexed": true,
          "internalType": "address",
          "name": "sender",
          "type": "address"
        }
      ],
      "name": "RoleRevoked",
      "type": "event"
    },
    {
      "anonymous": false,
      "inputs": [
        {
          "indexed": true,
          "internalType": "address",
          "name": "operator",
          "type": "address"
        },
        {
          "indexed": true,
          "internalType": "address",
          "name": "from",
          "type": "address"
        },
        {
          "indexed": true,
          "internalType": "address",
          "name": "to",
          "type": "address"
        },
        {
          "indexed": false,
          "internalType": "uint256[]",
          "name": "ids",
          "type": "uint256[]"
        },
        {
          "indexed": false,
          "internalType": "uint256[]",
          "name": "values",
          "type": "uint256[]"
        }
      ],
      "name": "TransferBatch",
      "type": "event"
    },
    {
      "anonymous": false,
      "inputs": [
        {
          "indexed": true,
          "internalType": "address",
          "name": "operator",
          "type": "address"
        },
        {
          "indexed": true,
          "internalType": "address",
          "name": "from",
          "type": "address"
        },
        {
          "indexed": true,
          "internalType": "address",
          "name": "to",
          "type": "address"
        },
        {
          "indexed": false,
          "internalType": "uint256",
          "name": "id",
          "type": "uint256"
        },
        {
          "indexed": false,
          "internalType": "uint256",
          "name": "value",
          "type": "uint256"
        }
      ],
      "name": "TransferSingle",
      "type": "event"
    },
    {
      "anonymous": false,
      "inputs": [
        {
          "indexed": false,
          "internalType": "string",
          "name": "value",
          "type": "string"
        },
        {
          "indexed": true,
          "internalType": "uint256",
          "name": "id",
          "type": "uint256"
        }
      ],
      "name": "URI",
      "type": "event"
    },
    {
      "inputs": [],
      "name": "BARDAOTOKEN",
      "outputs": [
        {
          "internalType": "uint256",
          "name": "",
          "type": "uint256"
        }
      ],
      "stateMutability": "view",
      "type": "function"
    },
    {
      "inputs": [],
      "name": "DEFAULT_ADMIN_ROLE",
      "outputs": [
        {
          "internalType": "bytes32",
          "name": "",
          "type": "bytes32"
        }
      ],
      "stateMutability": "view",
      "type": "function"
    },
    {
      "inputs": [],
      "name": "MEMBER",
      "outputs": [
        {
          "internalType": "uint256",
          "name": "",
          "type": "uint256"
        }
      ],
      "stateMutability": "view",
      "type": "function"
    },
    {
      "inputs": [],
      "name": "MINTER_ROLE",
      "outputs": [
        {
          "internalType": "bytes32",
          "name": "",
          "type": "bytes32"
        }
      ],
      "stateMutability": "view",
      "type": "function"
    },
    {
      "inputs": [
        {
          "internalType": "address",
          "name": "account",
          "type": "address"
        },
        {
          "internalType": "uint256",
          "name": "id",
          "type": "uint256"
        }
      ],
      "name": "balanceOf",
      "outputs": [
        {
          "internalType": "uint256",
          "name": "",
          "type": "uint256"
        }
      ],
      "stateMutability": "view",
      "type": "function"
    },
    {
      "inputs": [
        {
          "internalType": "address[]",
          "name": "accounts",
          "type": "address[]"
        },
        {
          "internalType": "uint256[]",
          "name": "ids",
          "type": "uint256[]"
        }
      ],
      "name": "balanceOfBatch",
      "outputs": [
        {
          "internalType": "uint256[]",
          "name": "",
          "type": "uint256[]"
        }
      ],
      "stateMutability": "view",
      "type": "function"
    },
    {
      "inputs": [
        {
          "internalType": "bytes32",
          "name": "role",
          "type": "bytes32"
        }
      ],
      "name": "getRoleAdmin",
      "outputs": [
        {
          "internalType": "bytes32",
          "name": "",
          "type": "bytes32"
        }
      ],
      "stateMutability": "view",
      "type": "function"
    },
    {
      "inputs": [
        {
          "internalType": "bytes32",
          "name": "role",
          "type": "bytes32"
        },
        {
          "internalType": "address",
          "name": "account",
          "type": "address"
        }
      ],
      "name": "grantRole",
      "outputs": [],
      "stateMutability": "nonpayable",
      "type": "function"
    },
    {
      "inputs": [
        {
          "internalType": "bytes32",
          "name": "role",
          "type": "bytes32"
        },
        {
          "internalType": "address",
          "name": "account",
          "type": "address"
        }
      ],
      "name": "hasRole",
      "outputs": [
        {
          "internalType": "bool",
          "name": "",
          "type": "bool"
        }
      ],
      "stateMutability": "view",
      "type": "function"
    },
    {
      "inputs": [
        {
          "internalType": "address",
          "name": "account",
          "type": "address"
        },
        {
          "internalType": "address",
          "name": "operator",
          "type": "address"
        }
      ],
      "name": "isApprovedForAll",
      "outputs": [
        {
          "internalType": "bool",
          "name": "",
          "type": "bool"
        }
      ],
      "stateMutability": "view",
      "type": "function"
    },
    {
      "inputs": [
        {
          "internalType": "address",
          "name": "account",
          "type": "address"
        },
        {
          "internalType": "uint256",
          "name": "id",
          "type": "uint256"
        },
        {
          "internalType": "uint256",
          "name": "amount",
          "type": "uint256"
        },
        {
          "internalType": "bytes",
          "name": "data",
          "type": "bytes"
        }
      ],
      "name": "mint",
      "outputs": [],
      "stateMutability": "nonpayable",
      "type": "function"
    },
    {
      "inputs": [
        {
          "internalType": "address",
          "name": "to",
          "type": "address"
        },
        {
          "internalType": "uint256[]",
          "name": "ids",
          "type": "uint256[]"
        },
        {
          "internalType": "uint256[]",
          "name": "amounts",
          "type": "uint256[]"
        },
        {
          "internalType": "bytes",
          "name": "data",
          "type": "bytes"
        }
      ],
      "name": "mintBatch",
      "outputs": [],
      "stateMutability": "nonpayable",
      "type": "function"
    },
    {
      "inputs": [
        {
          "internalType": "bytes32",
          "name": "role",
          "type": "bytes32"
        },
        {
          "internalType": "address",
          "name": "callerConfirmation",
          "type": "address"
        }
      ],
      "name": "renounceRole",
      "outputs": [],
      "stateMutability": "nonpayable",
      "type": "function"
    },
    {
      "inputs": [
        {
          "internalType": "bytes32",
          "name": "role",
          "type": "bytes32"
        },
        {
          "internalType": "address",
          "name": "account",
          "type": "address"
        }
      ],
      "name": "revokeRole",
      "outputs": [],
      "stateMutability": "nonpayable",
      "type": "function"
    },
    {
      "inputs": [
        {
          "internalType": "address",
          "name": "from",
          "type": "address"
        },
        {
          "internalType": "address",
          "name": "to",
          "type": "address"
        },
        {
          "internalType": "uint256[]",
          "name": "ids",
          "type": "uint256[]"
        },
        {
          "internalType": "uint256[]",
          "name": "values",
          "type": "uint256[]"
        },
        {
          "internalType": "bytes",
          "name": "data",
          "type": "bytes"
        }
      ],
      "name": "safeBatchTransferFrom",
      "outputs": [],
      "stateMutability": "nonpayable",
      "type": "function"
    },
    {
      "inputs": [
        {
          "internalType": "address",
          "name": "from",
          "type": "address"
        },
        {
          "internalType": "address",
          "name": "to",
          "type": "address"
        },
        {
          "internalType": "uint256",
          "name": "id",
          "type": "uint256"
        },
        {
          "internalType": "uint256",
          "name": "value",
          "type": "uint256"
        },
        {
          "internalType": "bytes",
          "name": "data",
          "type": "bytes"
        }
      ],
      "name": "safeTransferFrom",
      "outputs": [],
      "stateMutability": "nonpayable",
      "type": "function"
    },
    {
      "inputs": [
        {
          "internalType": "address",
          "name": "operator",
          "type": "address"
        },
        {
          "internalType": "bool",
          "name": "approved",
          "type": "bool"
        }
      ],
      "name": "setApprovalForAll",
      "outputs": [],
      "stateMutability": "nonpayable",
      "type": "function"
    },
    {
      "inputs": [
        {
          "internalType": "bytes4",
          "name": "interfaceId",
          "type": "bytes4"
        }
      ],
      "name": "supportsInterface",
      "outputs": [
        {
          "internalType": "bool",
          "name": "",
          "type": "bool"
        }
      ],
      "stateMutability": "view",
      "type": "function"
    },
    {
      "inputs": [
        {
          "internalType": "uint256",
          "name": "",
          "type": "uint256"
        }
      ],
      "name": "uri",
      "outputs": [
        {
          "internalType": "string",
          "name": "",
          "type": "string"
        }
      ],
      "stateMutability": "view",
      "type": "function"
    }
  ],
  "bytecode": "0x60806040523480156200001157600080fd5b5060405162002fbc38038062002fbc8339818101604052810190620000379190620002a0565b604051806020016040528060008152506200005881620000aa60201b60201c565b506200006e6000801b83620000bf60201b60201c565b50620000a17f9f2df0fed2c77648de5860a4cc508cd0818c85b8b8a1ab4ceeef8d981c8956a682620000bf60201b60201c565b50505062000648565b8060029081620000bb919062000561565b5050565b6000620000d38383620001c360201b60201c565b620001b85760016003600085815260200190815260200160002060000160008473ffffffffffffffffffffffffffffffffffffffff1673ffffffffffffffffffffffffffffffffffffffff16815260200190815260200160002060006101000a81548160ff021916908315150217905550620001546200022e60201b60201c565b73ffffffffffffffffffffffffffffffffffffffff168273ffffffffffffffffffffffffffffffffffffffff16847f2f8788117e7eff1d82e926ec794901d17c78024a50270940304540a733656f0d60405160405180910390a460019050620001bd565b600090505b92915050565b60006003600084815260200190815260200160002060000160008373ffffffffffffffffffffffffffffffffffffffff1673ffffffffffffffffffffffffffffffffffffffff16815260200190815260200160002060009054906101000a900460ff16905092915050565b600033905090565b600080fd5b600073ffffffffffffffffffffffffffffffffffffffff82169050919050565b600062000268826200023b565b9050919050565b6200027a816200025b565b81146200028657600080fd5b50565b6000815190506200029a816200026f565b92915050565b60008060408385031215620002ba57620002b962000236565b5b6000620002ca8582860162000289565b9250506020620002dd8582860162000289565b9150509250929050565b600081519050919050565b7f4e487b7100000000000000000000000000000000000000000000000000000000600052604160045260246000fd5b7f4e487b7100000000000000000000000000000000000000000000000000000000600052602260045260246000fd5b600060028204905060018216806200036957607f821691505b6020821081036200037f576200037e62000321565b5b50919050565b60008190508160005260206000209050919050565b60006020601f8301049050919050565b600082821b905092915050565b600060088302620003e97fffffffffffffffffffffffffffffffffffffffffffffffffffffffffffffffff82620003aa565b620003f58683620003aa565b95508019841693508086168417925050509392505050565b6000819050919050565b6000819050919050565b6000620004426200043c62000436846200040d565b62000417565b6200040d565b9050919050565b6000819050919050565b6200045e8362000421565b620004766200046d8262000449565b848454620003b7565b825550505050565b600090565b6200048d6200047e565b6200049a81848462000453565b505050565b5b81811015620004c257620004b660008262000483565b600181019050620004a0565b5050565b601f8211156200051157620004db8162000385565b620004e6846200039a565b81016020851015620004f6578190505b6200050e62000505856200039a565b8301826200049f565b50505b505050565b600082821c905092915050565b6000620005366000198460080262000516565b1980831691505092915050565b600062000551838362000523565b9150826002028217905092915050565b6200056c82620002e7565b67ffffffffffffffff811115620005885762000587620002f2565b5b62000594825462000350565b620005a1828285620004c6565b600060209050601f831160018114620005d95760008415620005c4578287015190505b620005d0858262000543565b86555062000640565b601f198416620005e98662000385565b60005b828110156200061357848901518255600182019150602085019450602081019050620005ec565b868310156200063357848901516200062f601f89168262000523565b8355505b6001600288020188555050505b505050505050565b61296480620006586000396000f3fe608060405234801561001057600080fd5b50600436106101205760003560e01c80634e1273f4116100ad578063d539139311610071578063d539139314610329578063d547741f14610347578063e985e9c514610363578063f242432a14610393578063fe829bc3146103af57610120565b80634e1273f414610273578063731133e9146102a357806391d14854146102bf578063a217fddf146102ef578063a22cb4651461030d57610120565b80631f7fdffa116100f45780631f7fdffa146101d3578063248a9ca3146101ef5780632eb2c2d61461021f5780632f2ff15d1461023b57806336568abe1461025757610120565b8062fdd58e1461012557806301ffc9a7146101555780630e89341c146101855780631c681a42146101b5575b600080fd5b61013f600480360381019061013a9190611b41565b6103cd565b60405161014c9190611b90565b60405180910390f35b61016f600480360381019061016a9190611c03565b610427565b60405161017c9190611c4b565b60405180910390f35b61019f600480360381019061019a9190611c66565b610439565b6040516101ac9190611d23565b60405180910390f35b6101bd6104cd565b6040516101ca9190611b90565b60405180910390f35b6101ed60048036038101906101e89190611f42565b6104d2565b005b61020960048036038101906102049190612033565b61050f565b604051610216919061206f565b60405180910390f35b6102396004803603810190610234919061208a565b61052f565b005b61025560048036038101906102509190612159565b6105d7565b005b610271600480360381019061026c9190612159565b6105f9565b005b61028d6004803603810190610288919061225c565b610674565b60405161029a9190612392565b60405180910390f35b6102bd60048036038101906102b891906123b4565b610783565b005b6102d960048036038101906102d49190612159565b6107c0565b6040516102e69190611c4b565b60405180910390f35b6102f761082b565b604051610304919061206f565b60405180910390f35b61032760048036038101906103229190612463565b610832565b005b610331610848565b60405161033e919061206f565b60405180910390f35b610361600480360381019061035c9190612159565b61086c565b005b61037d600480360381019061037891906124a3565b61088e565b60405161038a9190611c4b565b60405180910390f35b6103ad60048036038101906103a891906124e3565b610922565b005b6103b76109ca565b6040516103c49190611b90565b60405180910390f35b600080600083815260200190815260200160002060008473ffffffffffffffffffffffffffffffffffffffff1673ffffffffffffffffffffffffffffffffffffffff16815260200190815260200160002054905092915050565b6000610432826109cf565b9050919050565b606060028054610448906125a9565b80601f0160208091040260200160405190810160405280929190818152602001828054610474906125a9565b80156104c15780601f10610496576101008083540402835291602001916104c1565b820191906000526020600020905b8154815290600101906020018083116104a457829003601f168201915b50505050509050919050565b600181565b7f9f2df0fed2c77648de5860a4cc508cd0818c85b8b8a1ab4ceeef8d981c8956a66104fc81610a49565b61050885858585610a5d565b5050505050565b600060036000838152602001908152602001600020600101549050919050565b6000610539610ae3565b90508073ffffffffffffffffffffffffffffffffffffffff168673ffffffffffffffffffffffffffffffffffffffff161415801561057e575061057c868261088e565b155b156105c25780866040517fe237d9220000000000000000000000000000000000000000000000000000000081526004016105b99291906125e9565b60405180910390fd5b6105cf8686868686610aeb565b505050505050565b6105e08261050f565b6105e981610a49565b6105f38383610be3565b50505050565b610601610ae3565b73ffffffffffffffffffffffffffffffffffffffff168173ffffffffffffffffffffffffffffffffffffffff1614610665576040517f6697b23200000000000000000000000000000000000000000000000000000000815260040160405180910390fd5b61066f8282610cd5565b505050565b606081518351146106c057815183516040517f5b0599910000000000000000000000000000000000000000000000000000000081526004016106b7929190612612565b60405180910390fd5b6000835167ffffffffffffffff8111156106dd576106dc611d4a565b5b60405190808252806020026020018201604052801561070b5781602001602082028036833780820191505090505b50905060005b8451811015610778576107486107308287610dc890919063ffffffff16565b6107438387610ddc90919063ffffffff16565b6103cd565b82828151811061075b5761075a61263b565b5b6020026020010181815250508061077190612699565b9050610711565b508091505092915050565b7f9f2df0fed2c77648de5860a4cc508cd0818c85b8b8a1ab4ceeef8d981c8956a66107ad81610a49565b6107b985858585610df0565b5050505050565b60006003600084815260200190815260200160002060000160008373ffffffffffffffffffffffffffffffffffffffff1673ffffffffffffffffffffffffffffffffffffffff16815260200190815260200160002060009054906101000a900460ff16905092915050565b6000801b81565b61084461083d610ae3565b8383610e89565b5050565b7f9f2df0fed2c77648de5860a4cc508cd0818c85b8b8a1ab4ceeef8d981c8956a681565b6108758261050f565b61087e81610a49565b6108888383610cd5565b50505050565b6000600160008473ffffffffffffffffffffffffffffffffffffffff1673ffffffffffffffffffffffffffffffffffffffff16815260200190815260200160002060008373ffffffffffffffffffffffffffffffffffffffff1673ffffffffffffffffffffffffffffffffffffffff16815260200190815260200160002060009054906101000a900460ff16905092915050565b600061092c610ae3565b90508073ffffffffffffffffffffffffffffffffffffffff168673ffffffffffffffffffffffffffffffffffffffff1614158015610971575061096f868261088e565b155b156109b55780866040517fe237d9220000000000000000000000000000000000000000000000000000000081526004016109ac9291906125e9565b60405180910390fd5b6109c28686868686610ff9565b505050505050565b600081565b60007f7965db0b000000000000000000000000000000000000000000000000000000007bffffffffffffffffffffffffffffffffffffffffffffffffffffffff1916827bffffffffffffffffffffffffffffffffffffffffffffffffffffffff19161480610a425750610a4182611104565b5b9050919050565b610a5a81610a55610ae3565b6111e6565b50565b600073ffffffffffffffffffffffffffffffffffffffff168473ffffffffffffffffffffffffffffffffffffffff1603610acf5760006040517f57f447ce000000000000000000000000000000000000000000000000000000008152600401610ac691906126e1565b60405180910390fd5b610add600085858585611237565b50505050565b600033905090565b600073ffffffffffffffffffffffffffffffffffffffff168473ffffffffffffffffffffffffffffffffffffffff1603610b5d5760006040517f57f447ce000000000000000000000000000000000000000000000000000000008152600401610b5491906126e1565b60405180910390fd5b600073ffffffffffffffffffffffffffffffffffffffff168573ffffffffffffffffffffffffffffffffffffffff1603610bcf5760006040517f01a83514000000000000000000000000000000000000000000000000000000008152600401610bc691906126e1565b60405180910390fd5b610bdc8585858585611237565b5050505050565b6000610bef83836107c0565b610cca5760016003600085815260200190815260200160002060000160008473ffffffffffffffffffffffffffffffffffffffff1673ffffffffffffffffffffffffffffffffffffffff16815260200190815260200160002060006101000a81548160ff021916908315150217905550610c67610ae3565b73ffffffffffffffffffffffffffffffffffffffff168273ffffffffffffffffffffffffffffffffffffffff16847f2f8788117e7eff1d82e926ec794901d17c78024a50270940304540a733656f0d60405160405180910390a460019050610ccf565b600090505b92915050565b6000610ce183836107c0565b15610dbd5760006003600085815260200190815260200160002060000160008473ffffffffffffffffffffffffffffffffffffffff1673ffffffffffffffffffffffffffffffffffffffff16815260200190815260200160002060006101000a81548160ff021916908315150217905550610d5a610ae3565b73ffffffffffffffffffffffffffffffffffffffff168273ffffffffffffffffffffffffffffffffffffffff16847ff6391f5c32d9c69d2a47ea670b442974b53935d1edc7fd64eb21e047a839171b60405160405180910390a460019050610dc2565b600090505b92915050565b600060208202602084010151905092915050565b600060208202602084010151905092915050565b600073ffffffffffffffffffffffffffffffffffffffff168473ffffffffffffffffffffffffffffffffffffffff1603610e625760006040517f57f447ce000000000000000000000000000000000000000000000000000000008152600401610e5991906126e1565b60405180910390fd5b600080610e6f85856112e9565b91509150610e81600087848487611237565b505050505050565b600073ffffffffffffffffffffffffffffffffffffffff168273ffffffffffffffffffffffffffffffffffffffff1603610efb5760006040517fced3e100000000000000000000000000000000000000000000000000000000008152600401610ef291906126e1565b60405180910390fd5b80600160008573ffffffffffffffffffffffffffffffffffffffff1673ffffffffffffffffffffffffffffffffffffffff16815260200190815260200160002060008473ffffffffffffffffffffffffffffffffffffffff1673ffffffffffffffffffffffffffffffffffffffff16815260200190815260200160002060006101000a81548160ff0219169083151502179055508173ffffffffffffffffffffffffffffffffffffffff168373ffffffffffffffffffffffffffffffffffffffff167f17307eab39ab6107e8899845ad3d59bd9653f200f220920489ca2b5937696c3183604051610fec9190611c4b565b60405180910390a3505050565b600073ffffffffffffffffffffffffffffffffffffffff168473ffffffffffffffffffffffffffffffffffffffff160361106b5760006040517f57f447ce00000000000000000000000000000000000000000000000000000000815260040161106291906126e1565b60405180910390fd5b600073ffffffffffffffffffffffffffffffffffffffff168573ffffffffffffffffffffffffffffffffffffffff16036110dd5760006040517f01a835140000000000000000000000000000000000000000000000000000000081526004016110d491906126e1565b60405180910390fd5b6000806110ea85856112e9565b915091506110fb8787848487611237565b50505050505050565b60007fd9b67a26000000000000000000000000000000000000000000000000000000007bffffffffffffffffffffffffffffffffffffffffffffffffffffffff1916827bffffffffffffffffffffffffffffffffffffffffffffffffffffffff191614806111cf57507f0e89341c000000000000000000000000000000000000000000000000000000007bffffffffffffffffffffffffffffffffffffffffffffffffffffffff1916827bffffffffffffffffffffffffffffffffffffffffffffffffffffffff1916145b806111df57506111de82611319565b5b9050919050565b6111f082826107c0565b6112335780826040517fe2517d3f00000000000000000000000000000000000000000000000000000000815260040161122a9291906126fc565b60405180910390fd5b5050565b61124385858585611383565b600073ffffffffffffffffffffffffffffffffffffffff168473ffffffffffffffffffffffffffffffffffffffff16146112e2576000611281610ae3565b905060018451036112d15760006112a2600086610ddc90919063ffffffff16565b905060006112ba600086610ddc90919063ffffffff16565b90506112ca838989858589611731565b50506112e0565b6112df8187878787876118e5565b5b505b5050505050565b60608060405191506001825283602083015260408201905060018152826020820152604081016040529250929050565b60007f01ffc9a7000000000000000000000000000000000000000000000000000000007bffffffffffffffffffffffffffffffffffffffffffffffffffffffff1916827bffffffffffffffffffffffffffffffffffffffffffffffffffffffff1916149050919050565b80518251146113cd57815181516040517f5b0599910000000000000000000000000000000000000000000000000000000081526004016113c4929190612612565b60405180910390fd5b60006113d7610ae3565b905060005b83518110156115ec5760006113fa8286610ddc90919063ffffffff16565b905060006114118386610ddc90919063ffffffff16565b9050600073ffffffffffffffffffffffffffffffffffffffff168873ffffffffffffffffffffffffffffffffffffffff161461153e57600080600084815260200190815260200160002060008a73ffffffffffffffffffffffffffffffffffffffff1673ffffffffffffffffffffffffffffffffffffffff168152602001908152602001600020549050818110156114e657888183856040517f03dee4c50000000000000000000000000000000000000000000000000000000081526004016114dd9493929190612725565b60405180910390fd5b81810360008085815260200190815260200160002060008b73ffffffffffffffffffffffffffffffffffffffff1673ffffffffffffffffffffffffffffffffffffffff16815260200190815260200160002081905550505b600073ffffffffffffffffffffffffffffffffffffffff168773ffffffffffffffffffffffffffffffffffffffff16146115d9578060008084815260200190815260200160002060008973ffffffffffffffffffffffffffffffffffffffff1673ffffffffffffffffffffffffffffffffffffffff16815260200190815260200160002060008282546115d1919061276a565b925050819055505b5050806115e590612699565b90506113dc565b5060018351036116ab57600061160c600085610ddc90919063ffffffff16565b90506000611624600085610ddc90919063ffffffff16565b90508573ffffffffffffffffffffffffffffffffffffffff168773ffffffffffffffffffffffffffffffffffffffff168473ffffffffffffffffffffffffffffffffffffffff167fc3d58168c5ae7397731d063d5bbf3d657854427343f4c083240f7aacaa2d0f62858560405161169c929190612612565b60405180910390a4505061172a565b8373ffffffffffffffffffffffffffffffffffffffff168573ffffffffffffffffffffffffffffffffffffffff168273ffffffffffffffffffffffffffffffffffffffff167f4a39dc06d4c0dbc64b70af90fd698a233a518aa5d07e595d983b8c0526c8f7fb868660405161172192919061279e565b60405180910390a45b5050505050565b60008473ffffffffffffffffffffffffffffffffffffffff163b11156118dd578373ffffffffffffffffffffffffffffffffffffffff1663f23a6e6187878686866040518663ffffffff1660e01b815260040161179295949392919061282a565b6020604051808303816000875af19250505080156117ce57506040513d601f19601f820116820180604052508101906117cb9190612899565b60015b611852573d80600081146117fe576040519150601f19603f3d011682016040523d82523d6000602084013e611803565b606091505b50600081510361184a57846040517f57f447ce00000000000000000000000000000000000000000000000000000000815260040161184191906126e1565b60405180910390fd5b805181602001fd5b63f23a6e6160e01b7bffffffffffffffffffffffffffffffffffffffffffffffffffffffff1916817bffffffffffffffffffffffffffffffffffffffffffffffffffffffff1916146118db57846040517f57f447ce0000000000000000000000000000000000000000000000000000000081526004016118d291906126e1565b60405180910390fd5b505b505050505050565b60008473ffffffffffffffffffffffffffffffffffffffff163b1115611a91578373ffffffffffffffffffffffffffffffffffffffff1663bc197c8187878686866040518663ffffffff1660e01b81526004016119469594939291906128c6565b6020604051808303816000875af192505050801561198257506040513d601f19601f8201168201806040525081019061197f9190612899565b60015b611a06573d80600081146119b2576040519150601f19603f3d011682016040523d82523d6000602084013e6119b7565b606091505b5060008151036119fe57846040517f57f447ce0000000000000000000000000000000000000000000000000000000081526004016119f591906126e1565b60405180910390fd5b805181602001fd5b63bc197c8160e01b7bffffffffffffffffffffffffffffffffffffffffffffffffffffffff1916817bffffffffffffffffffffffffffffffffffffffffffffffffffffffff191614611a8f57846040517f57f447ce000000000000000000000000000000000000000000000000000000008152600401611a8691906126e1565b60405180910390fd5b505b505050505050565b6000604051905090565b600080fd5b600080fd5b600073ffffffffffffffffffffffffffffffffffffffff82169050919050565b6000611ad882611aad565b9050919050565b611ae881611acd565b8114611af357600080fd5b50565b600081359050611b0581611adf565b92915050565b6000819050919050565b611b1e81611b0b565b8114611b2957600080fd5b50565b600081359050611b3b81611b15565b92915050565b60008060408385031215611b5857611b57611aa3565b5b6000611b6685828601611af6565b9250506020611b7785828601611b2c565b9150509250929050565b611b8a81611b0b565b82525050565b6000602082019050611ba56000830184611b81565b92915050565b60007fffffffff0000000000000000000000000000000000000000000000000000000082169050919050565b611be081611bab565b8114611beb57600080fd5b50565b600081359050611bfd81611bd7565b92915050565b600060208284031215611c1957611c18611aa3565b5b6000611c2784828501611bee565b91505092915050565b60008115159050919050565b611c4581611c30565b82525050565b6000602082019050611c606000830184611c3c565b92915050565b600060208284031215611c7c57611c7b611aa3565b5b6000611c8a84828501611b2c565b91505092915050565b600081519050919050565b600082825260208201905092915050565b60005b83811015611ccd578082015181840152602081019050611cb2565b60008484015250505050565b6000601f19601f8301169050919050565b6000611cf582611c93565b611cff8185611c9e565b9350611d0f818560208601611caf565b611d1881611cd9565b840191505092915050565b60006020820190508181036000830152611d3d8184611cea565b905092915050565b600080fd5b7f4e487b7100000000000000000000000000000000000000000000000000000000600052604160045260246000fd5b611d8282611cd9565b810181811067ffffffffffffffff82111715611da157611da0611d4a565b5b80604052505050565b6000611db4611a99565b9050611dc08282611d79565b919050565b600067ffffffffffffffff821115611de057611ddf611d4a565b5b602082029050602081019050919050565b600080fd5b6000611e09611e0484611dc5565b611daa565b90508083825260208201905060208402830185811115611e2c57611e2b611df1565b5b835b81811015611e555780611e418882611b2c565b845260208401935050602081019050611e2e565b5050509392505050565b600082601f830112611e7457611e73611d45565b5b8135611e84848260208601611df6565b91505092915050565b600080fd5b600067ffffffffffffffff821115611ead57611eac611d4a565b5b611eb682611cd9565b9050602081019050919050565b82818337600083830152505050565b6000611ee5611ee084611e92565b611daa565b905082815260208101848484011115611f0157611f00611e8d565b5b611f0c848285611ec3565b509392505050565b600082601f830112611f2957611f28611d45565b5b8135611f39848260208601611ed2565b91505092915050565b60008060008060808587031215611f5c57611f5b611aa3565b5b6000611f6a87828801611af6565b945050602085013567ffffffffffffffff811115611f8b57611f8a611aa8565b5b611f9787828801611e5f565b935050604085013567ffffffffffffffff811115611fb857611fb7611aa8565b5b611fc487828801611e5f565b925050606085013567ffffffffffffffff811115611fe557611fe4611aa8565b5b611ff187828801611f14565b91505092959194509250565b6000819050919050565b61201081611ffd565b811461201b57600080fd5b50565b60008135905061202d81612007565b92915050565b60006020828403121561204957612048611aa3565b5b60006120578482850161201e565b91505092915050565b61206981611ffd565b82525050565b60006020820190506120846000830184612060565b92915050565b600080600080600060a086880312156120a6576120a5611aa3565b5b60006120b488828901611af6565b95505060206120c588828901611af6565b945050604086013567ffffffffffffffff8111156120e6576120e5611aa8565b5b6120f288828901611e5f565b935050606086013567ffffffffffffffff81111561211357612112611aa8565b5b61211f88828901611e5f565b925050608086013567ffffffffffffffff8111156121405761213f611aa8565b5b61214c88828901611f14565b9150509295509295909350565b600080604083850312156121705761216f611aa3565b5b600061217e8582860161201e565b925050602061218f85828601611af6565b9150509250929050565b600067ffffffffffffffff8211156121b4576121b3611d4a565b5b602082029050602081019050919050565b60006121d86121d384612199565b611daa565b905080838252602082019050602084028301858111156121fb576121fa611df1565b5b835b8181101561222457806122108882611af6565b8452602084019350506020810190506121fd565b5050509392505050565b600082601f83011261224357612242611d45565b5b81356122538482602086016121c5565b91505092915050565b6000806040838503121561227357612272611aa3565b5b600083013567ffffffffffffffff81111561229157612290611aa8565b5b61229d8582860161222e565b925050602083013567ffffffffffffffff8111156122be576122bd611aa8565b5b6122ca85828601611e5f565b9150509250929050565b600081519050919050565b600082825260208201905092915050565b6000819050602082019050919050565b61230981611b0b565b82525050565b600061231b8383612300565b60208301905092915050565b6000602082019050919050565b600061233f826122d4565b61234981856122df565b9350612354836122f0565b8060005b8381101561238557815161236c888261230f565b975061237783612327565b925050600181019050612358565b5085935050505092915050565b600060208201905081810360008301526123ac8184612334565b905092915050565b600080600080608085870312156123ce576123cd611aa3565b5b60006123dc87828801611af6565b94505060206123ed87828801611b2c565b93505060406123fe87828801611b2c565b925050606085013567ffffffffffffffff81111561241f5761241e611aa8565b5b61242b87828801611f14565b91505092959194509250565b61244081611c30565b811461244b57600080fd5b50565b60008135905061245d81612437565b92915050565b6000806040838503121561247a57612479611aa3565b5b600061248885828601611af6565b92505060206124998582860161244e565b9150509250929050565b600080604083850312156124ba576124b9611aa3565b5b60006124c885828601611af6565b92505060206124d985828601611af6565b9150509250929050565b600080600080600060a086880312156124ff576124fe611aa3565b5b600061250d88828901611af6565b955050602061251e88828901611af6565b945050604061252f88828901611b2c565b935050606061254088828901611b2c565b925050608086013567ffffffffffffffff81111561256157612560611aa8565b5b61256d88828901611f14565b9150509295509295909350565b7f4e487b7100000000000000000000000000000000000000000000000000000000600052602260045260246000fd5b600060028204905060018216806125c157607f821691505b6020821081036125d4576125d361257a565b5b50919050565b6125e381611acd565b82525050565b60006040820190506125fe60008301856125da565b61260b60208301846125da565b9392505050565b60006040820190506126276000830185611b81565b6126346020830184611b81565b9392505050565b7f4e487b7100000000000000000000000000000000000000000000000000000000600052603260045260246000fd5b7f4e487b7100000000000000000000000000000000000000000000000000000000600052601160045260246000fd5b60006126a482611b0b565b91507fffffffffffffffffffffffffffffffffffffffffffffffffffffffffffffffff82036126d6576126d561266a565b5b600182019050919050565b60006020820190506126f660008301846125da565b92915050565b600060408201905061271160008301856125da565b61271e6020830184612060565b9392505050565b600060808201905061273a60008301876125da565b6127476020830186611b81565b6127546040830185611b81565b6127616060830184611b81565b95945050505050565b600061277582611b0b565b915061278083611b0b565b92508282019050808211156127985761279761266a565b5b92915050565b600060408201905081810360008301526127b88185612334565b905081810360208301526127cc8184612334565b90509392505050565b600081519050919050565b600082825260208201905092915050565b60006127fc826127d5565b61280681856127e0565b9350612816818560208601611caf565b61281f81611cd9565b840191505092915050565b600060a08201905061283f60008301886125da565b61284c60208301876125da565b6128596040830186611b81565b6128666060830185611b81565b818103608083015261287881846127f1565b90509695505050505050565b60008151905061289381611bd7565b92915050565b6000602082840312156128af576128ae611aa3565b5b60006128bd84828501612884565b91505092915050565b600060a0820190506128db60008301886125da565b6128e860208301876125da565b81810360408301526128fa8186612334565b9050818103606083015261290e8185612334565b9050818103608083015261292281846127f1565b9050969550505050505056fea2646970667358221220f21da37b672c21c72a7d7fb6ca7e1bc5ddc41e192acc589beb0467c7e3393c3664736f6c63430008140033",
  "linkReferences": {},
  "deployedLinkReferences": {}
}