{
  "_format": "hh-sol-artifact-1",
  "contractName": "BardToken",
  "sourceName": "contracts/BardToken.sol",
  "abi": [
    {
      "inputs": [],
      "stateMutability": "nonpayable",
      "type": "constructor"
    },
    {
      "inputs": [],
      "name": "AccessControlBadConfirmation",
      "type": "error"
    },
    {
      "inputs": [
        {
          "internalType": "address",
          "name": "account",
          "type": "address"
        },
        {
          "internalType": "bytes32",
          "name": "neededRole",
          "type": "bytes32"
        }
      ],
      "name": "AccessControlUnauthorizedAccount",
      "type": "error"
    },
    {
      "inputs": [],
      "name": "ECDSAInvalidSignature",
      "type": "error"
    },
    {
      "inputs": [
        {
          "internalType": "uint256",
          "name": "length",
          "type": "uint256"
        }
      ],
      "name": "ECDSAInvalidSignatureLength",
      "type": "error"
    },
    {
      "inputs": [
        {
          "internalType": "bytes32",
          "name": "s",
          "type": "bytes32"
        }
      ],
      "name": "ECDSAInvalidSignatureS",
      "type": "error"
    },
    {
      "inputs": [
        {
          "internalType": "address",
          "name": "spender",
          "type": "address"
        },
        {
          "internalType": "uint256",
          "name": "allowance",
          "type": "uint256"
        },
        {
          "internalType": "uint256",
          "name": "needed",
          "type": "uint256"
        }
      ],
      "name": "ERC20InsufficientAllowance",
      "type": "error"
    },
    {
      "inputs": [
        {
          "internalType": "address",
          "name": "sender",
          "type": "address"
        },
        {
          "internalType": "uint256",
          "name": "balance",
          "type": "uint256"
        },
        {
          "internalType": "uint256",
          "name": "needed",
          "type": "uint256"
        }
      ],
      "name": "ERC20InsufficientBalance",
      "type": "error"
    },
    {
      "inputs": [
        {
          "internalType": "address",
          "name": "approver",
          "type": "address"
        }
      ],
      "name": "ERC20InvalidApprover",
      "type": "error"
    },
    {
      "inputs": [
        {
          "internalType": "address",
          "name": "receiver",
          "type": "address"
        }
      ],
      "name": "ERC20InvalidReceiver",
      "type": "error"
    },
    {
      "inputs": [
        {
          "internalType": "address",
          "name": "sender",
          "type": "address"
        }
      ],
      "name": "ERC20InvalidSender",
      "type": "error"
    },
    {
      "inputs": [
        {
          "internalType": "address",
          "name": "spender",
          "type": "address"
        }
      ],
      "name": "ERC20InvalidSpender",
      "type": "error"
    },
    {
      "inputs": [
        {
          "internalType": "uint256",
          "name": "deadline",
          "type": "uint256"
        }
      ],
      "name": "ERC2612ExpiredSignature",
      "type": "error"
    },
    {
      "inputs": [
        {
          "internalType": "address",
          "name": "signer",
          "type": "address"
        },
        {
          "internalType": "address",
          "name": "owner",
          "type": "address"
        }
      ],
      "name": "ERC2612InvalidSigner",
      "type": "error"
    },
    {
      "inputs": [
        {
          "internalType": "address",
          "name": "account",
          "type": "address"
        },
        {
          "internalType": "uint256",
          "name": "currentNonce",
          "type": "uint256"
        }
      ],
      "name": "InvalidAccountNonce",
      "type": "error"
    },
    {
      "inputs": [],
      "name": "InvalidShortString",
      "type": "error"
    },
    {
      "inputs": [
        {
          "internalType": "string",
          "name": "str",
          "type": "string"
        }
      ],
      "name": "StringTooLong",
      "type": "error"
    },
    {
      "anonymous": false,
      "inputs": [
        {
          "indexed": true,
          "internalType": "address",
          "name": "owner",
          "type": "address"
        },
        {
          "indexed": true,
          "internalType": "address",
          "name": "spender",
          "type": "address"
        },
        {
          "indexed": false,
          "internalType": "uint256",
          "name": "value",
          "type": "uint256"
        }
      ],
      "name": "Approval",
      "type": "event"
    },
    {
      "anonymous": false,
      "inputs": [],
      "name": "EIP712DomainChanged",
      "type": "event"
    },
    {
      "anonymous": false,
      "inputs": [
        {
          "indexed": true,
          "internalType": "address",
          "name": "to",
          "type": "address"
        },
        {
          "indexed": false,
          "internalType": "uint256",
          "name": "amount",
          "type": "uint256"
        }
      ],
      "name": "Minted",
      "type": "event"
    },
    {
      "anonymous": false,
      "inputs": [
        {
          "indexed": true,
          "internalType": "bytes32",
          "name": "role",
          "type": "bytes32"
        },
        {
          "indexed": true,
          "internalType": "bytes32",
          "name": "previousAdminRole",
          "type": "bytes32"
        },
        {
          "indexed": true,
          "internalType": "bytes32",
          "name": "newAdminRole",
          "type": "bytes32"
        }
      ],
      "name": "RoleAdminChanged",
      "type": "event"
    },
    {
      "anonymous": false,
      "inputs": [
        {
          "indexed": true,
          "internalType": "bytes32",
          "name": "role",
          "type": "bytes32"
        },
        {
          "indexed": true,
          "internalType": "address",
          "name": "account",
          "type": "address"
        },
        {
          "indexed": true,
          "internalType": "address",
          "name": "sender",
          "type": "address"
        }
      ],
      "name": "RoleGranted",
      "type": "event"
    },
    {
      "anonymous": false,
      "inputs": [
        {
          "indexed": true,
          "internalType": "bytes32",
          "name": "role",
          "type": "bytes32"
        },
        {
          "indexed": true,
          "internalType": "address",
          "name": "account",
          "type": "address"
        },
        {
          "indexed": true,
          "internalType": "address",
          "name": "sender",
          "type": "address"
        }
      ],
      "name": "RoleRevoked",
      "type": "event"
    },
    {
      "anonymous": false,
      "inputs": [
        {
          "indexed": true,
          "internalType": "address",
          "name": "from",
          "type": "address"
        },
        {
          "indexed": true,
          "internalType": "address",
          "name": "to",
          "type": "address"
        },
        {
          "indexed": false,
          "internalType": "uint256",
          "name": "value",
          "type": "uint256"
        }
      ],
      "name": "Transfer",
      "type": "event"
    },
    {
      "inputs": [],
      "name": "DEFAULT_ADMIN_ROLE",
      "outputs": [
        {
          "internalType": "bytes32",
          "name": "",
          "type": "bytes32"
        }
      ],
      "stateMutability": "view",
      "type": "function"
    },
    {
      "inputs": [],
      "name": "DOMAIN_SEPARATOR",
      "outputs": [
        {
          "internalType": "bytes32",
          "name": "",
          "type": "bytes32"
        }
      ],
      "stateMutability": "view",
      "type": "function"
    },
    {
      "inputs": [],
      "name": "MAX_SUPPLY",
      "outputs": [
        {
          "internalType": "uint256",
          "name": "",
          "type": "uint256"
        }
      ],
      "stateMutability": "view",
      "type": "function"
    },
    {
      "inputs": [],
      "name": "MINTER_ROLE",
      "outputs": [
        {
          "internalType": "bytes32",
          "name": "",
          "type": "bytes32"
        }
      ],
      "stateMutability": "view",
      "type": "function"
    },
    {
      "inputs": [
        {
          "internalType": "address",
          "name": "owner",
          "type": "address"
        },
        {
          "internalType": "address",
          "name": "spender",
          "type": "address"
        }
      ],
      "name": "allowance",
      "outputs": [
        {
          "internalType": "uint256",
          "name": "",
          "type": "uint256"
        }
      ],
      "stateMutability": "view",
      "type": "function"
    },
    {
      "inputs": [
        {
          "internalType": "address",
          "name": "spender",
          "type": "address"
        },
        {
          "internalType": "uint256",
          "name": "value",
          "type": "uint256"
        }
      ],
      "name": "approve",
      "outputs": [
        {
          "internalType": "bool",
          "name": "",
          "type": "bool"
        }
      ],
      "stateMutability": "nonpayable",
      "type": "function"
    },
    {
      "inputs": [
        {
          "internalType": "address",
          "name": "account",
          "type": "address"
        }
      ],
      "name": "balanceOf",
      "outputs": [
        {
          "internalType": "uint256",
          "name": "",
          "type": "uint256"
        }
      ],
      "stateMutability": "view",
      "type": "function"
    },
    {
      "inputs": [],
      "name": "decimals",
      "outputs": [
        {
          "internalType": "uint8",
          "name": "",
          "type": "uint8"
        }
      ],
      "stateMutability": "view",
      "type": "function"
    },
    {
      "inputs": [],
      "name": "eip712Domain",
      "outputs": [
        {
          "internalType": "bytes1",
          "name": "fields",
          "type": "bytes1"
        },
        {
          "internalType": "string",
          "name": "name",
          "type": "string"
        },
        {
          "internalType": "string",
          "name": "version",
          "type": "string"
        },
        {
          "internalType": "uint256",
          "name": "chainId",
          "type": "uint256"
        },
        {
          "internalType": "address",
          "name": "verifyingContract",
          "type": "address"
        },
        {
          "internalType": "bytes32",
          "name": "salt",
          "type": "bytes32"
        },
        {
          "internalType": "uint256[]",
          "name": "extensions",
          "type": "uint256[]"
        }
      ],
      "stateMutability": "view",
      "type": "function"
    },
    {
      "inputs": [
        {
          "internalType": "bytes32",
          "name": "role",
          "type": "bytes32"
        }
      ],
      "name": "getRoleAdmin",
      "outputs": [
        {
          "internalType": "bytes32",
          "name": "",
          "type": "bytes32"
        }
      ],
      "stateMutability": "view",
      "type": "function"
    },
    {
      "inputs": [
        {
          "internalType": "address",
          "name": "_minter",
          "type": "address"
        }
      ],
      "name": "grantMinterRole",
      "outputs": [],
      "stateMutability": "nonpayable",
      "type": "function"
    },
    {
      "inputs": [
        {
          "internalType": "bytes32",
          "name": "role",
          "type": "bytes32"
        },
        {
          "internalType": "address",
          "name": "account",
          "type": "address"
        }
      ],
      "name": "grantRole",
      "outputs": [],
      "stateMutability": "nonpayable",
      "type": "function"
    },
    {
      "inputs": [
        {
          "internalType": "bytes32",
          "name": "role",
          "type": "bytes32"
        },
        {
          "internalType": "address",
          "name": "account",
          "type": "address"
        }
      ],
      "name": "hasRole",
      "outputs": [
        {
          "internalType": "bool",
          "name": "",
          "type": "bool"
        }
      ],
      "stateMutability": "view",
      "type": "function"
    },
    {
      "inputs": [
        {
          "internalType": "address",
          "name": "to",
          "type": "address"
        },
        {
          "internalType": "uint256",
          "name": "amount",
          "type": "uint256"
        }
      ],
      "name": "mint",
      "outputs": [],
      "stateMutability": "nonpayable",
      "type": "function"
    },
    {
      "inputs": [],
      "name": "name",
      "outputs": [
        {
          "internalType": "string",
          "name": "",
          "type": "string"
        }
      ],
      "stateMutability": "view",
      "type": "function"
    },
    {
      "inputs": [
        {
          "internalType": "address",
          "name": "owner",
          "type": "address"
        }
      ],
      "name": "nonces",
      "outputs": [
        {
          "internalType": "uint256",
          "name": "",
          "type": "uint256"
        }
      ],
      "stateMutability": "view",
      "type": "function"
    },
    {
      "inputs": [
        {
          "internalType": "address",
          "name": "owner",
          "type": "address"
        },
        {
          "internalType": "address",
          "name": "spender",
          "type": "address"
        },
        {
          "internalType": "uint256",
          "name": "value",
          "type": "uint256"
        },
        {
          "internalType": "uint256",
          "name": "deadline",
          "type": "uint256"
        },
        {
          "internalType": "uint8",
          "name": "v",
          "type": "uint8"
        },
        {
          "internalType": "bytes32",
          "name": "r",
          "type": "bytes32"
        },
        {
          "internalType": "bytes32",
          "name": "s",
          "type": "bytes32"
        }
      ],
      "name": "permit",
      "outputs": [],
      "stateMutability": "nonpayable",
      "type": "function"
    },
    {
      "inputs": [
        {
          "internalType": "bytes32",
          "name": "role",
          "type": "bytes32"
        },
        {
          "internalType": "address",
          "name": "callerConfirmation",
          "type": "address"
        }
      ],
      "name": "renounceRole",
      "outputs": [],
      "stateMutability": "nonpayable",
      "type": "function"
    },
    {
      "inputs": [
        {
          "internalType": "bytes32",
          "name": "role",
          "type": "bytes32"
        },
        {
          "internalType": "address",
          "name": "account",
          "type": "address"
        }
      ],
      "name": "revokeRole",
      "outputs": [],
      "stateMutability": "nonpayable",
      "type": "function"
    },
    {
      "inputs": [
        {
          "internalType": "bytes4",
          "name": "interfaceId",
          "type": "bytes4"
        }
      ],
      "name": "supportsInterface",
      "outputs": [
        {
          "internalType": "bool",
          "name": "",
          "type": "bool"
        }
      ],
      "stateMutability": "view",
      "type": "function"
    },
    {
      "inputs": [],
      "name": "symbol",
      "outputs": [
        {
          "internalType": "string",
          "name": "",
          "type": "string"
        }
      ],
      "stateMutability": "view",
      "type": "function"
    },
    {
      "inputs": [],
      "name": "totalSupply",
      "outputs": [
        {
          "internalType": "uint256",
          "name": "",
          "type": "uint256"
        }
      ],
      "stateMutability": "view",
      "type": "function"
    },
    {
      "inputs": [
        {
          "internalType": "address",
          "name": "to",
          "type": "address"
        },
        {
          "internalType": "uint256",
          "name": "value",
          "type": "uint256"
        }
      ],
      "name": "transfer",
      "outputs": [
        {
          "internalType": "bool",
          "name": "",
          "type": "bool"
        }
      ],
      "stateMutability": "nonpayable",
      "type": "function"
    },
    {
      "inputs": [
        {
          "internalType": "address",
          "name": "from",
          "type": "address"
        },
        {
          "internalType": "address",
          "name": "to",
          "type": "address"
        },
        {
          "internalType": "uint256",
          "name": "value",
          "type": "uint256"
        }
      ],
      "name": "transferFrom",
      "outputs": [
        {
          "internalType": "bool",
          "name": "",
          "type": "bool"
        }
      ],
      "stateMutability": "nonpayable",
      "type": "function"
    }
  ],
  "bytecode": "0x6101606040523480156200001257600080fd5b506040518060400160405280600981526020017f42617264546f6b656e0000000000000000000000000000000000000000000000815250806040518060400160405280600181526020017f31000000000000000000000000000000000000000000000000000000000000008152506040518060400160405280600981526020017f42617264546f6b656e00000000000000000000000000000000000000000000008152506040518060400160405280600481526020017f42524454000000000000000000000000000000000000000000000000000000008152508160039081620000fd91906200072f565b5080600490816200010f91906200072f565b505050620001286006836200021260201b90919060201c565b6101208181525050620001466007826200021260201b90919060201c565b6101408181525050818051906020012060e08181525050808051906020012061010081815250504660a08181525050620001856200026a60201b60201c565b608081815250503073ffffffffffffffffffffffffffffffffffffffff1660c08173ffffffffffffffffffffffffffffffffffffffff1681525050505050620001d86000801b33620002c760201b60201c565b506200020b7f9f2df0fed2c77648de5860a4cc508cd0818c85b8b8a1ab4ceeef8d981c8956a633620002c760201b60201c565b5062000a39565b600060208351101562000238576200023083620003cb60201b60201c565b905062000264565b826200024a836200043860201b60201c565b60000190816200025b91906200072f565b5060ff60001b90505b92915050565b60007f8b73c3c69bb8fe3d512ecc4cf759cc79239f7b179b0ffacaa9a75d522b39400f60e051610100514630604051602001620002ac95949392919062000887565b60405160208183030381529060405280519060200120905090565b6000620002db83836200044260201b60201c565b620003c05760016005600085815260200190815260200160002060000160008473ffffffffffffffffffffffffffffffffffffffff1673ffffffffffffffffffffffffffffffffffffffff16815260200190815260200160002060006101000a81548160ff0219169083151502179055506200035c620004ad60201b60201c565b73ffffffffffffffffffffffffffffffffffffffff168273ffffffffffffffffffffffffffffffffffffffff16847f2f8788117e7eff1d82e926ec794901d17c78024a50270940304540a733656f0d60405160405180910390a460019050620003c5565b600090505b92915050565b600080829050601f815111156200041b57826040517f305a27a900000000000000000000000000000000000000000000000000000000815260040162000412919062000973565b60405180910390fd5b8051816200042990620009c9565b60001c1760001b915050919050565b6000819050919050565b60006005600084815260200190815260200160002060000160008373ffffffffffffffffffffffffffffffffffffffff1673ffffffffffffffffffffffffffffffffffffffff16815260200190815260200160002060009054906101000a900460ff16905092915050565b600033905090565b600081519050919050565b7f4e487b7100000000000000000000000000000000000000000000000000000000600052604160045260246000fd5b7f4e487b7100000000000000000000000000000000000000000000000000000000600052602260045260246000fd5b600060028204905060018216806200053757607f821691505b6020821081036200054d576200054c620004ef565b5b50919050565b60008190508160005260206000209050919050565b60006020601f8301049050919050565b600082821b905092915050565b600060088302620005b77fffffffffffffffffffffffffffffffffffffffffffffffffffffffffffffffff8262000578565b620005c3868362000578565b95508019841693508086168417925050509392505050565b6000819050919050565b6000819050919050565b6000620006106200060a6200060484620005db565b620005e5565b620005db565b9050919050565b6000819050919050565b6200062c83620005ef565b620006446200063b8262000617565b84845462000585565b825550505050565b600090565b6200065b6200064c565b6200066881848462000621565b505050565b5b8181101562000690576200068460008262000651565b6001810190506200066e565b5050565b601f821115620006df57620006a98162000553565b620006b48462000568565b81016020851015620006c4578190505b620006dc620006d38562000568565b8301826200066d565b50505b505050565b600082821c905092915050565b60006200070460001984600802620006e4565b1980831691505092915050565b60006200071f8383620006f1565b9150826002028217905092915050565b6200073a82620004b5565b67ffffffffffffffff811115620007565762000755620004c0565b5b6200076282546200051e565b6200076f82828562000694565b600060209050601f831160018114620007a7576000841562000792578287015190505b6200079e858262000711565b8655506200080e565b601f198416620007b78662000553565b60005b82811015620007e157848901518255600182019150602085019450602081019050620007ba565b86831015620008015784890151620007fd601f891682620006f1565b8355505b6001600288020188555050505b505050505050565b6000819050919050565b6200082b8162000816565b82525050565b6200083c81620005db565b82525050565b600073ffffffffffffffffffffffffffffffffffffffff82169050919050565b60006200086f8262000842565b9050919050565b620008818162000862565b82525050565b600060a0820190506200089e600083018862000820565b620008ad602083018762000820565b620008bc604083018662000820565b620008cb606083018562000831565b620008da608083018462000876565b9695505050505050565b600082825260208201905092915050565b60005b8381101562000915578082015181840152602081019050620008f8565b60008484015250505050565b6000601f19601f8301169050919050565b60006200093f82620004b5565b6200094b8185620008e4565b93506200095d818560208601620008f5565b620009688162000921565b840191505092915050565b600060208201905081810360008301526200098f818462000932565b905092915050565b600081519050919050565b6000819050602082019050919050565b6000620009c0825162000816565b80915050919050565b6000620009d68262000997565b82620009e284620009a2565b9050620009ef81620009b2565b9250602082101562000a325762000a2d7fffffffffffffffffffffffffffffffffffffffffffffffffffffffffffffffff8360200360080262000578565b831692505b5050919050565b60805160a05160c05160e05161010051610120516101405161264962000a9460003960006112980152600061125d015260006117fe015260006117dd01526000610fe3015260006110390152600061106201526126496000f3fe608060405234801561001057600080fd5b50600436106101585760003560e01c806340c10f19116100c3578063a217fddf1161007c578063a217fddf146103f5578063a9059cbb14610413578063d505accf14610443578063d53913931461045f578063d547741f1461047d578063dd62ed3e1461049957610158565b806340c10f191461030757806370a08231146103235780637ecebe001461035357806384b0196e1461038357806391d14854146103a757806395d89b41146103d757610158565b80632f2ff15d116101155780632f2ff15d14610259578063313ce5671461027557806332cb6b0c146102935780633644e515146102b157806336568abe146102cf5780633dd1eb61146102eb57610158565b806301ffc9a71461015d57806306fdde031461018d578063095ea7b3146101ab57806318160ddd146101db57806323b872dd146101f9578063248a9ca314610229575b600080fd5b61017760048036038101906101729190611cb8565b6104c9565b6040516101849190611d00565b60405180910390f35b610195610543565b6040516101a29190611dab565b60405180910390f35b6101c560048036038101906101c09190611e61565b6105d5565b6040516101d29190611d00565b60405180910390f35b6101e36105f8565b6040516101f09190611eb0565b60405180910390f35b610213600480360381019061020e9190611ecb565b610602565b6040516102209190611d00565b60405180910390f35b610243600480360381019061023e9190611f54565b610631565b6040516102509190611f90565b60405180910390f35b610273600480360381019061026e9190611fab565b610651565b005b61027d610673565b60405161028a9190612007565b60405180910390f35b61029b61067c565b6040516102a89190611eb0565b60405180910390f35b6102b961068b565b6040516102c69190611f90565b60405180910390f35b6102e960048036038101906102e49190611fab565b61069a565b005b61030560048036038101906103009190612022565b610715565b005b610321600480360381019061031c9190611e61565b610751565b005b61033d60048036038101906103389190612022565b61088d565b60405161034a9190611eb0565b60405180910390f35b61036d60048036038101906103689190612022565b6108d5565b60405161037a9190611eb0565b60405180910390f35b61038b6108e7565b60405161039e9796959493929190612157565b60405180910390f35b6103c160048036038101906103bc9190611fab565b610991565b6040516103ce9190611d00565b60405180910390f35b6103df6109fc565b6040516103ec9190611dab565b60405180910390f35b6103fd610a8e565b60405161040a9190611f90565b60405180910390f35b61042d60048036038101906104289190611e61565b610a95565b60405161043a9190611d00565b60405180910390f35b61045d60048036038101906104589190612207565b610ab8565b005b610467610c00565b6040516104749190611f90565b60405180910390f35b61049760048036038101906104929190611fab565b610c24565b005b6104b360048036038101906104ae91906122a9565b610c46565b6040516104c09190611eb0565b60405180910390f35b60007f7965db0b000000000000000000000000000000000000000000000000000000007bffffffffffffffffffffffffffffffffffffffffffffffffffffffff1916827bffffffffffffffffffffffffffffffffffffffffffffffffffffffff1916148061053c575061053b82610ccd565b5b9050919050565b60606003805461055290612318565b80601f016020809104026020016040519081016040528092919081815260200182805461057e90612318565b80156105cb5780601f106105a0576101008083540402835291602001916105cb565b820191906000526020600020905b8154815290600101906020018083116105ae57829003601f168201915b5050505050905090565b6000806105e0610d37565b90506105ed818585610d3f565b600191505092915050565b6000600254905090565b60008061060d610d37565b905061061a858285610d51565b610625858585610de5565b60019150509392505050565b600060056000838152602001908152602001600020600101549050919050565b61065a82610631565b61066381610ed9565b61066d8383610eed565b50505050565b60006012905090565b6a295be96e6406697200000081565b6000610695610fdf565b905090565b6106a2610d37565b73ffffffffffffffffffffffffffffffffffffffff168173ffffffffffffffffffffffffffffffffffffffff1614610706576040517f6697b23200000000000000000000000000000000000000000000000000000000815260040160405180910390fd5b6107108282611096565b505050565b6000801b61072281610ed9565b61074c7f9f2df0fed2c77648de5860a4cc508cd0818c85b8b8a1ab4ceeef8d981c8956a683610eed565b505050565b7f9f2df0fed2c77648de5860a4cc508cd0818c85b8b8a1ab4ceeef8d981c8956a661077b81610ed9565b6a295be96e64066972000000826107906105f8565b61079a9190612378565b11156107db576040517f08c379a00000000000000000000000000000000000000000000000000000000081526004016107d2906123f8565b60405180910390fd5b6a295be96e640669720000006107ef6105f8565b1115610830576040517f08c379a0000000000000000000000000000000000000000000000000000000008152600401610827906123f8565b60405180910390fd5b61083a8383611189565b8273ffffffffffffffffffffffffffffffffffffffff167f30385c845b448a36257a6a1716e6ad2e1bc2cbe333cde1e69fe849ad6511adfe836040516108809190611eb0565b60405180910390a2505050565b60008060008373ffffffffffffffffffffffffffffffffffffffff1673ffffffffffffffffffffffffffffffffffffffff168152602001908152602001600020549050919050565b60006108e08261120b565b9050919050565b6000606080600080600060606108fb611254565b61090361128f565b46306000801b600067ffffffffffffffff81111561092457610923612418565b5b6040519080825280602002602001820160405280156109525781602001602082028036833780820191505090505b507f0f00000000000000000000000000000000000000000000000000000000000000959493929190965096509650965096509650965090919293949596565b60006005600084815260200190815260200160002060000160008373ffffffffffffffffffffffffffffffffffffffff1673ffffffffffffffffffffffffffffffffffffffff16815260200190815260200160002060009054906101000a900460ff16905092915050565b606060048054610a0b90612318565b80601f0160208091040260200160405190810160405280929190818152602001828054610a3790612318565b8015610a845780601f10610a5957610100808354040283529160200191610a84565b820191906000526020600020905b815481529060010190602001808311610a6757829003601f168201915b5050505050905090565b6000801b81565b600080610aa0610d37565b9050610aad818585610de5565b600191505092915050565b83421115610afd57836040517f62791302000000000000000000000000000000000000000000000000000000008152600401610af49190611eb0565b60405180910390fd5b60007f6e71edae12b1b97f4d1f60370fef10105fa2faae0126114a169c64845d6126c9888888610b2c8c6112ca565b89604051602001610b4296959493929190612447565b6040516020818303038152906040528051906020012090506000610b6582611321565b90506000610b758287878761133b565b90508973ffffffffffffffffffffffffffffffffffffffff168173ffffffffffffffffffffffffffffffffffffffff1614610be957808a6040517f4b800e46000000000000000000000000000000000000000000000000000000008152600401610be09291906124a8565b60405180910390fd5b610bf48a8a8a610d3f565b50505050505050505050565b7f9f2df0fed2c77648de5860a4cc508cd0818c85b8b8a1ab4ceeef8d981c8956a681565b610c2d82610631565b610c3681610ed9565b610c408383611096565b50505050565b6000600160008473ffffffffffffffffffffffffffffffffffffffff1673ffffffffffffffffffffffffffffffffffffffff16815260200190815260200160002060008373ffffffffffffffffffffffffffffffffffffffff1673ffffffffffffffffffffffffffffffffffffffff16815260200190815260200160002054905092915050565b60007f01ffc9a7000000000000000000000000000000000000000000000000000000007bffffffffffffffffffffffffffffffffffffffffffffffffffffffff1916827bffffffffffffffffffffffffffffffffffffffffffffffffffffffff1916149050919050565b600033905090565b610d4c838383600161136b565b505050565b6000610d5d8484610c46565b90507fffffffffffffffffffffffffffffffffffffffffffffffffffffffffffffffff8114610ddf5781811015610dcf578281836040517ffb8f41b2000000000000000000000000000000000000000000000000000000008152600401610dc6939291906124d1565b60405180910390fd5b610dde8484848403600061136b565b5b50505050565b600073ffffffffffffffffffffffffffffffffffffffff168373ffffffffffffffffffffffffffffffffffffffff1603610e575760006040517f96c6fd1e000000000000000000000000000000000000000000000000000000008152600401610e4e9190612508565b60405180910390fd5b600073ffffffffffffffffffffffffffffffffffffffff168273ffffffffffffffffffffffffffffffffffffffff1603610ec95760006040517fec442f05000000000000000000000000000000000000000000000000000000008152600401610ec09190612508565b60405180910390fd5b610ed4838383611542565b505050565b610eea81610ee5610d37565b611767565b50565b6000610ef98383610991565b610fd45760016005600085815260200190815260200160002060000160008473ffffffffffffffffffffffffffffffffffffffff1673ffffffffffffffffffffffffffffffffffffffff16815260200190815260200160002060006101000a81548160ff021916908315150217905550610f71610d37565b73ffffffffffffffffffffffffffffffffffffffff168273ffffffffffffffffffffffffffffffffffffffff16847f2f8788117e7eff1d82e926ec794901d17c78024a50270940304540a733656f0d60405160405180910390a460019050610fd9565b600090505b92915050565b60007f000000000000000000000000000000000000000000000000000000000000000073ffffffffffffffffffffffffffffffffffffffff163073ffffffffffffffffffffffffffffffffffffffff1614801561105b57507f000000000000000000000000000000000000000000000000000000000000000046145b15611088577f00000000000000000000000000000000000000000000000000000000000000009050611093565b6110906117b8565b90505b90565b60006110a28383610991565b1561117e5760006005600085815260200190815260200160002060000160008473ffffffffffffffffffffffffffffffffffffffff1673ffffffffffffffffffffffffffffffffffffffff16815260200190815260200160002060006101000a81548160ff02191690831515021790555061111b610d37565b73ffffffffffffffffffffffffffffffffffffffff168273ffffffffffffffffffffffffffffffffffffffff16847ff6391f5c32d9c69d2a47ea670b442974b53935d1edc7fd64eb21e047a839171b60405160405180910390a460019050611183565b600090505b92915050565b600073ffffffffffffffffffffffffffffffffffffffff168273ffffffffffffffffffffffffffffffffffffffff16036111fb5760006040517fec442f050000000000000000000000000000000000000000000000000000000081526004016111f29190612508565b60405180910390fd5b61120760008383611542565b5050565b6000600860008373ffffffffffffffffffffffffffffffffffffffff1673ffffffffffffffffffffffffffffffffffffffff168152602001908152602001600020549050919050565b606061128a60067f000000000000000000000000000000000000000000000000000000000000000061184e90919063ffffffff16565b905090565b60606112c560077f000000000000000000000000000000000000000000000000000000000000000061184e90919063ffffffff16565b905090565b6000600860008373ffffffffffffffffffffffffffffffffffffffff1673ffffffffffffffffffffffffffffffffffffffff1681526020019081526020016000206000815480929190600101919050559050919050565b600061133461132e610fdf565b836118fe565b9050919050565b60008060008061134d8888888861193f565b92509250925061135d8282611a33565b829350505050949350505050565b600073ffffffffffffffffffffffffffffffffffffffff168473ffffffffffffffffffffffffffffffffffffffff16036113dd5760006040517fe602df050000000000000000000000000000000000000000000000000000000081526004016113d49190612508565b60405180910390fd5b600073ffffffffffffffffffffffffffffffffffffffff168373ffffffffffffffffffffffffffffffffffffffff160361144f5760006040517f94280d620000000000000000000000000000000000000000000000000000000081526004016114469190612508565b60405180910390fd5b81600160008673ffffffffffffffffffffffffffffffffffffffff1673ffffffffffffffffffffffffffffffffffffffff16815260200190815260200160002060008573ffffffffffffffffffffffffffffffffffffffff1673ffffffffffffffffffffffffffffffffffffffff16815260200190815260200160002081905550801561153c578273ffffffffffffffffffffffffffffffffffffffff168473ffffffffffffffffffffffffffffffffffffffff167f8c5be1e5ebec7d5bd14f71427d1e84f3dd0314c0f7b2291e5b200ac8c7c3b925846040516115339190611eb0565b60405180910390a35b50505050565b600073ffffffffffffffffffffffffffffffffffffffff168373ffffffffffffffffffffffffffffffffffffffff16036115945780600260008282546115889190612378565b92505081905550611667565b60008060008573ffffffffffffffffffffffffffffffffffffffff1673ffffffffffffffffffffffffffffffffffffffff16815260200190815260200160002054905081811015611620578381836040517fe450d38c000000000000000000000000000000000000000000000000000000008152600401611617939291906124d1565b60405180910390fd5b8181036000808673ffffffffffffffffffffffffffffffffffffffff1673ffffffffffffffffffffffffffffffffffffffff16815260200190815260200160002081905550505b600073ffffffffffffffffffffffffffffffffffffffff168273ffffffffffffffffffffffffffffffffffffffff16036116b057806002600082825403925050819055506116fd565b806000808473ffffffffffffffffffffffffffffffffffffffff1673ffffffffffffffffffffffffffffffffffffffff168152602001908152602001600020600082825401925050819055505b8173ffffffffffffffffffffffffffffffffffffffff168373ffffffffffffffffffffffffffffffffffffffff167fddf252ad1be2c89b69c2b068fc378daa952ba7f163c4a11628f55a4df523b3ef8360405161175a9190611eb0565b60405180910390a3505050565b6117718282610991565b6117b45780826040517fe2517d3f0000000000000000000000000000000000000000000000000000000081526004016117ab929190612523565b60405180910390fd5b5050565b60007f8b73c3c69bb8fe3d512ecc4cf759cc79239f7b179b0ffacaa9a75d522b39400f7f00000000000000000000000000000000000000000000000000000000000000007f0000000000000000000000000000000000000000000000000000000000000000463060405160200161183395949392919061254c565b60405160208183030381529060405280519060200120905090565b606060ff60001b831461186b5761186483611b97565b90506118f8565b81805461187790612318565b80601f01602080910402602001604051908101604052809291908181526020018280546118a390612318565b80156118f05780601f106118c5576101008083540402835291602001916118f0565b820191906000526020600020905b8154815290600101906020018083116118d357829003601f168201915b505050505090505b92915050565b60006040517f190100000000000000000000000000000000000000000000000000000000000081528360028201528260228201526042812091505092915050565b60008060007f7fffffffffffffffffffffffffffffff5d576e7357a4501ddfe92f46681b20a08460001c111561197f576000600385925092509250611a29565b6000600188888888604051600081526020016040526040516119a4949392919061259f565b6020604051602081039080840390855afa1580156119c6573d6000803e3d6000fd5b505050602060405103519050600073ffffffffffffffffffffffffffffffffffffffff168173ffffffffffffffffffffffffffffffffffffffff1603611a1a57600060016000801b93509350935050611a29565b8060008060001b935093509350505b9450945094915050565b60006003811115611a4757611a466125e4565b5b826003811115611a5a57611a596125e4565b5b0315611b935760016003811115611a7457611a736125e4565b5b826003811115611a8757611a866125e4565b5b03611abe576040517ff645eedf00000000000000000000000000000000000000000000000000000000815260040160405180910390fd5b60026003811115611ad257611ad16125e4565b5b826003811115611ae557611ae46125e4565b5b03611b2a578060001c6040517ffce698f7000000000000000000000000000000000000000000000000000000008152600401611b219190611eb0565b60405180910390fd5b600380811115611b3d57611b3c6125e4565b5b826003811115611b5057611b4f6125e4565b5b03611b9257806040517fd78bce0c000000000000000000000000000000000000000000000000000000008152600401611b899190611f90565b60405180910390fd5b5b5050565b60606000611ba483611c0b565b90506000602067ffffffffffffffff811115611bc357611bc2612418565b5b6040519080825280601f01601f191660200182016040528015611bf55781602001600182028036833780820191505090505b5090508181528360208201528092505050919050565b60008060ff8360001c169050601f811115611c52576040517fb3512b0c00000000000000000000000000000000000000000000000000000000815260040160405180910390fd5b80915050919050565b600080fd5b60007fffffffff0000000000000000000000000000000000000000000000000000000082169050919050565b611c9581611c60565b8114611ca057600080fd5b50565b600081359050611cb281611c8c565b92915050565b600060208284031215611cce57611ccd611c5b565b5b6000611cdc84828501611ca3565b91505092915050565b60008115159050919050565b611cfa81611ce5565b82525050565b6000602082019050611d156000830184611cf1565b92915050565b600081519050919050565b600082825260208201905092915050565b60005b83811015611d55578082015181840152602081019050611d3a565b60008484015250505050565b6000601f19601f8301169050919050565b6000611d7d82611d1b565b611d878185611d26565b9350611d97818560208601611d37565b611da081611d61565b840191505092915050565b60006020820190508181036000830152611dc58184611d72565b905092915050565b600073ffffffffffffffffffffffffffffffffffffffff82169050919050565b6000611df882611dcd565b9050919050565b611e0881611ded565b8114611e1357600080fd5b50565b600081359050611e2581611dff565b92915050565b6000819050919050565b611e3e81611e2b565b8114611e4957600080fd5b50565b600081359050611e5b81611e35565b92915050565b60008060408385031215611e7857611e77611c5b565b5b6000611e8685828601611e16565b9250506020611e9785828601611e4c565b9150509250929050565b611eaa81611e2b565b82525050565b6000602082019050611ec56000830184611ea1565b92915050565b600080600060608486031215611ee457611ee3611c5b565b5b6000611ef286828701611e16565b9350506020611f0386828701611e16565b9250506040611f1486828701611e4c565b9150509250925092565b6000819050919050565b611f3181611f1e565b8114611f3c57600080fd5b50565b600081359050611f4e81611f28565b92915050565b600060208284031215611f6a57611f69611c5b565b5b6000611f7884828501611f3f565b91505092915050565b611f8a81611f1e565b82525050565b6000602082019050611fa56000830184611f81565b92915050565b60008060408385031215611fc257611fc1611c5b565b5b6000611fd085828601611f3f565b9250506020611fe185828601611e16565b9150509250929050565b600060ff82169050919050565b61200181611feb565b82525050565b600060208201905061201c6000830184611ff8565b92915050565b60006020828403121561203857612037611c5b565b5b600061204684828501611e16565b91505092915050565b60007fff0000000000000000000000000000000000000000000000000000000000000082169050919050565b6120848161204f565b82525050565b61209381611ded565b82525050565b600081519050919050565b600082825260208201905092915050565b6000819050602082019050919050565b6120ce81611e2b565b82525050565b60006120e083836120c5565b60208301905092915050565b6000602082019050919050565b600061210482612099565b61210e81856120a4565b9350612119836120b5565b8060005b8381101561214a57815161213188826120d4565b975061213c836120ec565b92505060018101905061211d565b5085935050505092915050565b600060e08201905061216c600083018a61207b565b818103602083015261217e8189611d72565b905081810360408301526121928188611d72565b90506121a16060830187611ea1565b6121ae608083018661208a565b6121bb60a0830185611f81565b81810360c08301526121cd81846120f9565b905098975050505050505050565b6121e481611feb565b81146121ef57600080fd5b50565b600081359050612201816121db565b92915050565b600080600080600080600060e0888a03121561222657612225611c5b565b5b60006122348a828b01611e16565b97505060206122458a828b01611e16565b96505060406122568a828b01611e4c565b95505060606122678a828b01611e4c565b94505060806122788a828b016121f2565b93505060a06122898a828b01611f3f565b92505060c061229a8a828b01611f3f565b91505092959891949750929550565b600080604083850312156122c0576122bf611c5b565b5b60006122ce85828601611e16565b92505060206122df85828601611e16565b9150509250929050565b7f4e487b7100000000000000000000000000000000000000000000000000000000600052602260045260246000fd5b6000600282049050600182168061233057607f821691505b602082108103612343576123426122e9565b5b50919050565b7f4e487b7100000000000000000000000000000000000000000000000000000000600052601160045260246000fd5b600061238382611e2b565b915061238e83611e2b565b92508282019050808211156123a6576123a5612349565b5b92915050565b7f42617264546f6b656e3a206d617820737570706c792065786365656465640000600082015250565b60006123e2601e83611d26565b91506123ed826123ac565b602082019050919050565b60006020820190508181036000830152612411816123d5565b9050919050565b7f4e487b7100000000000000000000000000000000000000000000000000000000600052604160045260246000fd5b600060c08201905061245c6000830189611f81565b612469602083018861208a565b612476604083018761208a565b6124836060830186611ea1565b6124906080830185611ea1565b61249d60a0830184611ea1565b979650505050505050565b60006040820190506124bd600083018561208a565b6124ca602083018461208a565b9392505050565b60006060820190506124e6600083018661208a565b6124f36020830185611ea1565b6125006040830184611ea1565b949350505050565b600060208201905061251d600083018461208a565b92915050565b6000604082019050612538600083018561208a565b6125456020830184611f81565b9392505050565b600060a0820190506125616000830188611f81565b61256e6020830187611f81565b61257b6040830186611f81565b6125886060830185611ea1565b612595608083018461208a565b9695505050505050565b60006080820190506125b46000830187611f81565b6125c16020830186611ff8565b6125ce6040830185611f81565b6125db6060830184611f81565b95945050505050565b7f4e487b7100000000000000000000000000000000000000000000000000000000600052602160045260246000fdfea2646970667358221220208f1e892652663deb044d1bc4bd708ab02973d6d8aacb293a3605d552521bd964736f6c63430008140033",
  "linkReferences": {},
  "deployedLinkReferences": {}
}